{
  "_format": "hh-sol-artifact-1",
  "contractName": "RichestWallets",
  "sourceName": "contracts/Richest.sol",
  "abi": [
    {
      "inputs": [
        {
          "internalType": "address",
          "name": "_deployer",
          "type": "address"
        }
      ],
      "stateMutability": "nonpayable",
      "type": "constructor"
    },
    {
      "anonymous": false,
      "inputs": [
        {
          "indexed": true,
          "internalType": "address",
          "name": "walletAddress",
          "type": "address"
        },
        {
          "indexed": false,
          "internalType": "string",
          "name": "name",
          "type": "string"
        },
        {
          "indexed": false,
          "internalType": "string",
          "name": "email",
          "type": "string"
        }
      ],
      "name": "UserRegister",
      "type": "event"
    },
    {
      "anonymous": false,
      "inputs": [
        {
          "indexed": true,
          "internalType": "address",
          "name": "walletAddress",
          "type": "address"
        },
        {
          "indexed": false,
          "internalType": "string",
          "name": "name",
          "type": "string"
        },
        {
          "indexed": false,
          "internalType": "uint256",
          "name": "balance",
          "type": "uint256"
        }
      ],
      "name": "topThreeUsers",
      "type": "event"
    },
    {
      "anonymous": false,
      "inputs": [
        {
          "indexed": true,
          "internalType": "address",
          "name": "walletAddress",
          "type": "address"
        },
        {
          "indexed": false,
          "internalType": "string",
          "name": "name",
          "type": "string"
        },
        {
          "indexed": false,
          "internalType": "string",
          "name": "email",
          "type": "string"
        }
      ],
      "name": "updateUser",
      "type": "event"
    },
    {
      "inputs": [
        {
          "internalType": "address",
          "name": "",
          "type": "address"
        }
      ],
      "name": "Users",
      "outputs": [
        {
          "internalType": "string",
          "name": "name",
          "type": "string"
        },
        {
          "internalType": "string",
          "name": "email",
          "type": "string"
        },
        {
          "internalType": "address",
          "name": "walletAddress",
          "type": "address"
        },
        {
          "internalType": "uint256",
          "name": "balance",
          "type": "uint256"
        }
      ],
      "stateMutability": "view",
      "type": "function"
    },
    {
      "inputs": [],
      "name": "deployer",
      "outputs": [
        {
          "internalType": "address",
          "name": "",
          "type": "address"
        }
      ],
      "stateMutability": "view",
      "type": "function"
    },
    {
      "inputs": [],
      "name": "getTopThreeUser",
      "outputs": [],
      "stateMutability": "nonpayable",
      "type": "function"
    },
    {
      "inputs": [],
      "name": "getTotalNumberUsers",
      "outputs": [
        {
          "internalType": "uint256",
          "name": "",
          "type": "uint256"
        }
      ],
      "stateMutability": "view",
      "type": "function"
    },
    {
      "inputs": [
        {
          "internalType": "string",
          "name": "name",
          "type": "string"
        },
        {
          "internalType": "string",
          "name": "email",
          "type": "string"
        }
      ],
      "name": "registerUser",
      "outputs": [],
      "stateMutability": "nonpayable",
      "type": "function"
    },
    {
      "inputs": [
        {
          "internalType": "string",
          "name": "_name",
          "type": "string"
        },
        {
          "internalType": "string",
          "name": "_email",
          "type": "string"
        }
      ],
      "name": "updateUserInfo",
      "outputs": [],
      "stateMutability": "nonpayable",
      "type": "function"
    }
  ],
  "bytecode": "0x60806040523480156200001157600080fd5b5060405162001834380380620018348339818101604052810190620000379190620000e9565b80600160006101000a81548173ffffffffffffffffffffffffffffffffffffffff021916908373ffffffffffffffffffffffffffffffffffffffff160217905550506200011b565b600080fd5b600073ffffffffffffffffffffffffffffffffffffffff82169050919050565b6000620000b18262000084565b9050919050565b620000c381620000a4565b8114620000cf57600080fd5b50565b600081519050620000e381620000b8565b92915050565b6000602082840312156200010257620001016200007f565b5b60006200011284828501620000d2565b91505092915050565b611709806200012b6000396000f3fe608060405234801561001057600080fd5b50600436106100625760003560e01c806306cffbaf146100675780631d2e4afd1461007157806321c58aff1461008d5780634b3fcab5146100ab57806399b956a0146100c7578063d5f39488146100fa575b600080fd5b61006f610118565b005b61008b60048036038101906100869190610def565b6103bd565b005b610095610697565b6040516100a29190610e80565b60405180910390f35b6100c560048036038101906100c09190610def565b6106a9565b005b6100e160048036038101906100dc9190610ef9565b6108c0565b6040516100f19493929190610fb4565b60405180910390f35b610102610a20565b60405161010f9190611007565b60405180910390f35b60036002805490501015610161576040517f08c379a000000000000000000000000000000000000000000000000000000000815260040161015890611094565b60405180910390fd5b610169610c73565b600060028054905067ffffffffffffffff81111561018a57610189610cc4565b5b6040519080825280602002602001820160405280156101b85781602001602082028036833780820191505090505b50905060005b60028054905081101561027d57600080600283815481106101e2576101e16110b4565b5b9060005260206000200160009054906101000a900473ffffffffffffffffffffffffffffffffffffffff1673ffffffffffffffffffffffffffffffffffffffff1673ffffffffffffffffffffffffffffffffffffffff1681526020019081526020016000206003015482828151811061025e5761025d6110b4565b5b602002602001018181525050808061027590611112565b9150506101be565b5060005b60038110156103af5760008060005b84518110156102ef57818582815181106102ad576102ac6110b4565b5b602002602001015111156102dc578481815181106102ce576102cd6110b4565b5b602002602001015191508092505b80806102e790611112565b915050610290565b5060028281548110610304576103036110b4565b5b9060005260206000200160009054906101000a900473ffffffffffffffffffffffffffffffffffffffff16858460038110610342576103416110b4565b5b602002019073ffffffffffffffffffffffffffffffffffffffff16908173ffffffffffffffffffffffffffffffffffffffff1681525050600084838151811061038e5761038d6110b4565b5b602002602001018181525050505080806103a790611112565b915050610281565b506103b982610a46565b5050565b8181600082511180156103d1575060008151115b610410576040517f08c379a0000000000000000000000000000000000000000000000000000000008152600401610407906111a6565b60405180910390fd5b600073ffffffffffffffffffffffffffffffffffffffff166000803373ffffffffffffffffffffffffffffffffffffffff1673ffffffffffffffffffffffffffffffffffffffff16815260200190815260200160002060020160009054906101000a900473ffffffffffffffffffffffffffffffffffffffff1673ffffffffffffffffffffffffffffffffffffffff16146104e0576040517f08c379a00000000000000000000000000000000000000000000000000000000081526004016104d790611212565b60405180910390fd5b60405180608001604052808581526020018481526020013373ffffffffffffffffffffffffffffffffffffffff16815260200160008152506000803373ffffffffffffffffffffffffffffffffffffffff1673ffffffffffffffffffffffffffffffffffffffff168152602001908152602001600020600082015181600001908161056b919061143e565b506020820151816001019081610581919061143e565b5060408201518160020160006101000a81548173ffffffffffffffffffffffffffffffffffffffff021916908373ffffffffffffffffffffffffffffffffffffffff160217905550606082015181600301559050506002339080600181540180825580915050600190039060005260206000200160009091909190916101000a81548173ffffffffffffffffffffffffffffffffffffffff021916908373ffffffffffffffffffffffffffffffffffffffff160217905550610641610b3e565b3373ffffffffffffffffffffffffffffffffffffffff167f61ea8de2cafd998a36f598a0a5489bfbd894d0903ac2f612d34f4029342dd0098585604051610689929190611510565b60405180910390a250505050565b60008060028054905090508091505090565b8181600082511180156106bd575060008151115b6106fc576040517f08c379a00000000000000000000000000000000000000000000000000000000081526004016106f3906111a6565b60405180910390fd5b600073ffffffffffffffffffffffffffffffffffffffff166000803373ffffffffffffffffffffffffffffffffffffffff1673ffffffffffffffffffffffffffffffffffffffff16815260200190815260200160002060020160009054906101000a900473ffffffffffffffffffffffffffffffffffffffff1673ffffffffffffffffffffffffffffffffffffffff16036107cc576040517f08c379a00000000000000000000000000000000000000000000000000000000081526004016107c390611593565b60405180910390fd5b836000803373ffffffffffffffffffffffffffffffffffffffff1673ffffffffffffffffffffffffffffffffffffffff168152602001908152602001600020600001908161081a919061143e565b50826000803373ffffffffffffffffffffffffffffffffffffffff1673ffffffffffffffffffffffffffffffffffffffff1681526020019081526020016000206001019081610869919061143e565b503373ffffffffffffffffffffffffffffffffffffffff167f10e8b22d8282432e1b9efe39c0684618ca42b7c82cc5886e8ae608e2f697db3885856040516108b2929190611510565b60405180910390a250505050565b60006020528060005260406000206000915090508060000180546108e390611261565b80601f016020809104026020016040519081016040528092919081815260200182805461090f90611261565b801561095c5780601f106109315761010080835404028352916020019161095c565b820191906000526020600020905b81548152906001019060200180831161093f57829003601f168201915b50505050509080600101805461097190611261565b80601f016020809104026020016040519081016040528092919081815260200182805461099d90611261565b80156109ea5780601f106109bf576101008083540402835291602001916109ea565b820191906000526020600020905b8154815290600101906020018083116109cd57829003601f168201915b5050505050908060020160009054906101000a900473ffffffffffffffffffffffffffffffffffffffff16908060030154905084565b600160009054906101000a900473ffffffffffffffffffffffffffffffffffffffff1681565b60005b6003811015610b3a576000806000848460038110610a6a57610a696110b4565b5b602002015173ffffffffffffffffffffffffffffffffffffffff1673ffffffffffffffffffffffffffffffffffffffff16815260200190815260200160002090508060020160009054906101000a900473ffffffffffffffffffffffffffffffffffffffff1673ffffffffffffffffffffffffffffffffffffffff167f6e8fb8c7ee4c0a1612afca53292fbe2c0ad937b2cb24cd8358f9f6b3ab140859826000018360030154604051610b1e929190611637565b60405180910390a2508080610b3290611112565b915050610a49565b5050565b600073ffffffffffffffffffffffffffffffffffffffff166000803373ffffffffffffffffffffffffffffffffffffffff1673ffffffffffffffffffffffffffffffffffffffff16815260200190815260200160002060020160009054906101000a900473ffffffffffffffffffffffffffffffffffffffff1673ffffffffffffffffffffffffffffffffffffffff1603610c0e576040517f08c379a0000000000000000000000000000000000000000000000000000000008152600401610c05906116b3565b60405180910390fd5b60003373ffffffffffffffffffffffffffffffffffffffff16319050806000803373ffffffffffffffffffffffffffffffffffffffff1673ffffffffffffffffffffffffffffffffffffffff1681526020019081526020016000206003018190555050565b6040518060600160405280600390602082028036833780820191505090505090565b6000604051905090565b600080fd5b600080fd5b600080fd5b600080fd5b6000601f19601f8301169050919050565b7f4e487b7100000000000000000000000000000000000000000000000000000000600052604160045260246000fd5b610cfc82610cb3565b810181811067ffffffffffffffff82111715610d1b57610d1a610cc4565b5b80604052505050565b6000610d2e610c95565b9050610d3a8282610cf3565b919050565b600067ffffffffffffffff821115610d5a57610d59610cc4565b5b610d6382610cb3565b9050602081019050919050565b82818337600083830152505050565b6000610d92610d8d84610d3f565b610d24565b905082815260208101848484011115610dae57610dad610cae565b5b610db9848285610d70565b509392505050565b600082601f830112610dd657610dd5610ca9565b5b8135610de6848260208601610d7f565b91505092915050565b60008060408385031215610e0657610e05610c9f565b5b600083013567ffffffffffffffff811115610e2457610e23610ca4565b5b610e3085828601610dc1565b925050602083013567ffffffffffffffff811115610e5157610e50610ca4565b5b610e5d85828601610dc1565b9150509250929050565b6000819050919050565b610e7a81610e67565b82525050565b6000602082019050610e956000830184610e71565b92915050565b600073ffffffffffffffffffffffffffffffffffffffff82169050919050565b6000610ec682610e9b565b9050919050565b610ed681610ebb565b8114610ee157600080fd5b50565b600081359050610ef381610ecd565b92915050565b600060208284031215610f0f57610f0e610c9f565b5b6000610f1d84828501610ee4565b91505092915050565b600081519050919050565b600082825260208201905092915050565b60005b83811015610f60578082015181840152602081019050610f45565b60008484015250505050565b6000610f7782610f26565b610f818185610f31565b9350610f91818560208601610f42565b610f9a81610cb3565b840191505092915050565b610fae81610ebb565b82525050565b60006080820190508181036000830152610fce8187610f6c565b90508181036020830152610fe28186610f6c565b9050610ff16040830185610fa5565b610ffe6060830184610e71565b95945050505050565b600060208201905061101c6000830184610fa5565b92915050565b7f4e6f7420656e6f75676820757365727320746f2067657420746f70207468726560008201527f6500000000000000000000000000000000000000000000000000000000000000602082015250565b600061107e602183610f31565b915061108982611022565b604082019050919050565b600060208201905081810360008301526110ad81611071565b9050919050565b7f4e487b7100000000000000000000000000000000000000000000000000000000600052603260045260246000fd5b7f4e487b7100000000000000000000000000000000000000000000000000000000600052601160045260246000fd5b600061111d82610e67565b91507fffffffffffffffffffffffffffffffffffffffffffffffffffffffffffffffff820361114f5761114e6110e3565b5b600182019050919050565b7f6e616d6520616e6420656d61696c207265717569726564000000000000000000600082015250565b6000611190601783610f31565b915061119b8261115a565b602082019050919050565b600060208201905081810360008301526111bf81611183565b9050919050565b7f57616c6c6574204164647265737320616c726561647920457869736974730000600082015250565b60006111fc601e83610f31565b9150611207826111c6565b602082019050919050565b6000602082019050818103600083015261122b816111ef565b9050919050565b7f4e487b7100000000000000000000000000000000000000000000000000000000600052602260045260246000fd5b6000600282049050600182168061127957607f821691505b60208210810361128c5761128b611232565b5b50919050565b60008190508160005260206000209050919050565b60006020601f8301049050919050565b600082821b905092915050565b6000600883026112f47fffffffffffffffffffffffffffffffffffffffffffffffffffffffffffffffff826112b7565b6112fe86836112b7565b95508019841693508086168417925050509392505050565b6000819050919050565b600061133b61133661133184610e67565b611316565b610e67565b9050919050565b6000819050919050565b61135583611320565b61136961136182611342565b8484546112c4565b825550505050565b600090565b61137e611371565b61138981848461134c565b505050565b5b818110156113ad576113a2600082611376565b60018101905061138f565b5050565b601f8211156113f2576113c381611292565b6113cc846112a7565b810160208510156113db578190505b6113ef6113e7856112a7565b83018261138e565b50505b505050565b600082821c905092915050565b6000611415600019846008026113f7565b1980831691505092915050565b600061142e8383611404565b9150826002028217905092915050565b61144782610f26565b67ffffffffffffffff8111156114605761145f610cc4565b5b61146a8254611261565b6114758282856113b1565b600060209050601f8311600181146114a85760008415611496578287015190505b6114a08582611422565b865550611508565b601f1984166114b686611292565b60005b828110156114de578489015182556001820191506020850194506020810190506114b9565b868310156114fb57848901516114f7601f891682611404565b8355505b6001600288020188555050505b505050505050565b6000604082019050818103600083015261152a8185610f6c565b9050818103602083015261153e8184610f6c565b90509392505050565b7f57616c6c65742041646472657373204e6f742052656769737465726564210000600082015250565b600061157d601e83610f31565b915061158882611547565b602082019050919050565b600060208201905081810360008301526115ac81611570565b9050919050565b600081546115c081611261565b6115ca8186610f31565b945060018216600081146115e557600181146115fb5761162e565b60ff19831686528115156020028601935061162e565b61160485611292565b60005b8381101561162657815481890152600182019150602081019050611607565b808801955050505b50505092915050565b6000604082019050818103600083015261165181856115b3565b90506116606020830184610e71565b9392505050565b7f57616c6c65742041646472657373204e6f742052656769737465726564000000600082015250565b600061169d601d83610f31565b91506116a882611667565b602082019050919050565b600060208201905081810360008301526116cc81611690565b905091905056fea2646970667358221220c27892420ba9d3503670956aefc1459703504b505f92eca91b2914c5fa357b8564736f6c63430008120033",
  "linkReferences": {},
  "deployedLinkReferences": {}
}